:020000040000FA
:100000000C947A000C94A2000C94A2000C94EE0ABA
:100010000C94EE0A0C94EE0A0C94A2000C94A2002C
:100020000C94A2000C94A2000C94A2000C94A200C8
:100030000C94A2000C94A2000C94A2000C94A200B8
:100040000C944C0A0C94A2000C94BC0A0C94960AD2
:100050000C94A2000C94A2000C94A2000C94A20098
:100060000C94660B0C94A200084AD73B3BCE016E61
:1000700084BCBFFDC12F3D6C74319ABD56833DDAFF
:100080003D00C77F11BED9E4BB4C3E916BAAAABE0E
:10009000000000803F0000000000240027002A002C
:1000A0000000000800020100000304070000000037
:1000B00000000000000000002300260029000000CE
:1000C0000000250028002B00040404040404040498
:1000D00002020202020203030303030301020408F3
:1000E00010204080010204081020010204081020A2
:1000F000850C441011241FBECFEFD8E0DEBFCDBF6A
:1001000011E0A0E0B1E0E6EEFBE202C005900D9246
:10011000AA35B107D9F723E0AAE5B1E001C01D92E5
:10012000A236B207E1F710E0C9E7D0E004C021979A
:10013000FE010E94EE13C837D107C9F70E94620D75
:100140000C94E6150C940000833081F028F4813083
:1001500099F08230A9F008958730A9F08830C9F06D
:100160008430B1F4809180008F7D03C08091800045
:100170008F7780938000089584B58F7784BD08952C
:1001800084B58F7DFBCF8091B0008F778093B000D6
:1001900008958091B0008F7DF9CFCF93DF93ECEA83
:1001A000F0E08491E8EEF0E0D491E4EDF0E0C49169
:1001B000CC23A1F081110E94A400EC2FF0E0EE0FFF
:1001C000FF1FEC54FF4FA591B491EC91ED2381E01A
:1001D00090E009F480E0DF91CF91089580E090E015
:1001E000FACF1F93CF93DF93282F30E0F901E05629
:1001F000FF4F8491F901E452FF4FD491F901E85384
:10020000FF4FC491CC23A9F0162F81110E94A400A6
:10021000EC2FF0E0EE0FFF1FE254FF4FA591B491D9
:100220008FB7F894EC91111108C0D095DE23DC93C0
:100230008FBFDF91CF911F910895DE2BF8CFCF9321
:10024000DF9390E0FC01E452FF4F249188539F4FCD
:10025000FC0184918823C9F090E0880F991FFC016C
:10026000EA56FF4FA591B491FC01E254FF4FC591AE
:10027000D49161110DC09FB7F8948C912095822381
:100280008C938881282328839FBFDF91CF91089585
:10029000623051F49FB7F8943C91822F809583236C
:1002A0008C93E8812E2BEFCF8FB7F894EC912E2B07
:1002B0002C938FBFEACF8E50806480937C00809116
:1002C0007A00806480937A0080917A0086FDFCCF6A
:1002D000809178009091790008953FB7F8948091CB
:1002E0000D0290910E02A0910F02B091100226B55E
:1002F000A89B05C02F3F19F00196A11DB11D3FBF5E
:10030000BA2FA92F982F8827BC01CD01620F711D2C
:10031000811D911D42E0660F771F881F991F4A9526
:10032000D1F708958F929F92AF92BF92CF92DF92B2
:10033000EF92FF926B017C010E946D014B015C0109
:10034000C114D104E104F104B9F00E946D016819EF
:1003500079098A099B09683E73408105910580F3FC
:1003600021E0C21AD108E108F10888EE880E83E086
:10037000981EA11CB11CE4CFFF90EF90DF90CF90AE
:10038000BF90AF909F908F9008952FB7F894609191
:10039000090270910A0280910B0290910C022FBF0A
:1003A00008950F931F938091190390911A03DC0114
:1003B000ED91FC910084F185E02D0995892B09F4DC
:1003C000D7C060E070E0CB010E949201209137031A
:1003D0008091190390911A03DC01ED91FC91028444
:1003E000F385E02D21110BC00995809323038E37EF
:1003F000D1F6809137038F5F80933703D4CF09956F
:1004000090913703E92FF0E0E75EFC4F828792304E
:10041000B9F09930D9F09130A9F48F3F99F010924A
:10042000370381E08093390310923C0310923B0321
:1004300080933D0310923E0380E01F910F91089539
:10044000863069F79F5F90933703ADCF8F3E39F7C2
:100450002091250380912403280F3327331FE09137
:100460002603C9018E0F911D20912703280F392FD4
:10047000311D4091280350E0240F351F809129033E
:1004800090E060912A0370E0762F6627F0912B03AD
:100490006F0F711D280F391F319521953109621792
:1004A000730709F0BCCF10923703E13419F41092AE
:1004B0003E032FC0E0933A03542F4427840F951F27
:1004C00090933C0380933B03EA53E63108F046C027
:1004D000F0E0E359FD4F0C94EE139A02A202AC0235
:1004E0008302AC028C02AA02AE02AC02AC02AC02E5
:1004F000AC02AC02AC02AC02AC02AE02AC02AC028A
:10050000AC02AC02AC0285E08093390381E08093B9
:100510003D0380913D0391CF80FF02C089E0F4CF7D
:1005200081FF02C084E0F0CF83709927892B89F383
:100530008AE0EACF80FF02C087E0E6CF81FFE9CF03
:1005400082E0E2CF80FF02C088E0DECF81FFE1CF12
:1005500083E0DACF86E0D8CF8BE0D6CF81E08093FE
:10056000390310923C0310923B0380933D039FCFCD
:1005700080913E03882369F20E94C50100911B030C
:1005800010911C0320911D0330911E03601B710B01
:10059000820B930B00911F031091200320912103E4
:1005A00030912203601771078207930708F4B1CFD7
:1005B000109237031092390310923C0310923B03C0
:1005C00081E036CF80933003272F30E070933203E1
:1005D0006093330340912F0390912E03490F5527C9
:1005E000551F840F952F911D40913103840F911D4C
:1005F000820F931F680F792F711D71956195710995
:100600007093340360933503442361F080913E037B
:10061000882341F060E070E0CB010E9492010E94CB
:10062000D101F4CF8091190390911A03DC01ED916F
:10063000FC910280F381E02D4AE050E06DE273E02E
:1006400009950E94C50160931B0370931C0380935E
:100650001D0390931E038091310391E0811101C02D
:1006600090E090933E03811106C06AE070E080E064
:1006700090E00C949201089508950895AF92BF926E
:10068000CF92DF92EF92FF920F931F93CF93DF935E
:100690006C017B018B01040F151FEB015E01AE188D
:1006A000BF08C017D10759F06991D601ED91FC91AF
:1006B0000190F081E02DC6010995892B79F7C501DC
:1006C000DF91CF911F910F91FF90EF90DF90CF902E
:1006D000BF90AF900895FC01538D448D252F30E0DD
:1006E000842F90E0821B930B541710F0CF9608953F
:1006F00001970895FC01918D828D981761F0A28D6C
:10070000AE0FBF2FB11D5D968C91928D9F5F9F7331
:10071000928F90E008958FEF9FEF0895FC01918DE7
:10072000828D981731F0828DE80FF11D858D90E054
:1007300008958FEF9FEF0895FC01918D228D892FF1
:1007400090E0805C9F4F821B91098F7399270895D9
:1007500081E692E00E949C0321E0892B09F420E0CD
:10076000822F089580E090E0892B29F00E94A80351
:1007700081110C9400000895FC01A48DA80FB92FDD
:10078000B11DA35ABF4F2C91848D90E001968F73B9
:100790009927848FA689B7892C93A089B1898C91D8
:1007A000837080648C93938D848D981306C0028827
:1007B000F389E02D80818F7D80830895EF92FF92F1
:1007C0000F931F93CF93DF93EC0181E0888F9B8D74
:1007D0008C8D98131AC0E889F989808185FF15C02E
:1007E0009FB7F894EE89FF896083E889F989808151
:1007F0008370806480839FBF81E090E0DF91CF9120
:100800001F910F91FF90EF900895F62E0B8D10E041
:100810000F5F1F4F0F731127E02E8C8D8E110CC0B0
:100820000FB607FCFACFE889F989808185FFF5CFFB
:10083000CE010E94BC03F1CFEB8DEC0FFD2FF11D1B
:10084000E35AFF4FF0829FB7F8940B8FEA89FB8938
:1008500080818062CFCFCF93DF93EC01888D882396
:10086000B9F0AA89BB89E889F9898C9185FD03C013
:10087000808186FD0DC00FB607FCF7CF8C9185FFF8
:10088000F2CF808185FFEDCFCE010E94BC03E9CF7E
:10089000DF91CF9108952091060230910702281729
:1008A000390771F49091040280910502981741F084
:1008B000E0910402F0E0E254FE4F808190E0089560
:1008C0008FEF9FEF08950895EF92FF920F931F937C
:1008D000CF93DF93DC015C96ED90FC905D97E11483
:1008E000F10479F481E090E013969C938E93129733
:1008F00090E080E0DF91CF911F910F91FF90EF90FA
:1009000008955196ED91FC91529750968C91509785
:10091000982F90950FB75E962C915E97122F1270BC
:1009200021FD6095F8942081112319F1282B208353
:10093000E7012197F1F728E0462F50E0308160FF72
:100940001AC0382B3083E7012197F1F7BA0175956A
:100950006795215089F7112381F080818923808355
:100960000FBF5C968D919C910197F1F781E090E02B
:10097000C1CF2923DCCF3923E5CF9081892BEFCF5D
:1009800020910602309107022817390761F48091FF
:1009900005022091040290E0805C9F4F821B910928
:1009A0008F739927089590E080E0089520910602C2
:1009B0003091070228173907B9F490910402809109
:1009C0000502981789F0E0910402F0E0E254FE4F2E
:1009D00080812091040230E02F5F3F4F2F73332737
:1009E0002093040290E008958FEF9FEF08952091E7
:1009F0009B01260F3327331F21323105ECF4209160
:100A00003702FC0190E080E0243069F082E0089534
:100A1000A0919B012191AC0145585E4FA40FB52FC9
:100A2000B11D2C930196861798F380919B01680F56
:100A300060939B0180E0089581E008951092370251
:100A400081E0809336021092110261E082E10E94FF
:100A5000F10061E083E10E94F100E9EBF0E08081C8
:100A60008E7F808380818D7F808388E48093B8002F
:100A700085E48093BC000895CF93DF9391E0909339
:100A80007A018823B9F0C091B800D091BA00809162
:100A9000BC008A7B8093BC0060E082E10E94F10090
:100AA00060E083E10E94F1000E941E05D093BA002D
:100AB000C093B800DF91CF9108958F929F92AF922B
:100AC000BF92CF92DF92EF92FF920F931F93CF933B
:100AD000DF93D0916002D13208F0D7C0182FC091B7
:100AE0005F020E946D016B017C01809137028111D0
:100AF0006BC082E080933702109336028FEF8093B1
:100B0000350210923402D0933302AFE3B2E0E3E156
:100B1000F2E080E0D81391C010921202809112028C
:100B2000CC0FC82BC093120280911102813009F0C2
:100B300088C0109211020E946D016B017C018091AE
:100B400012028093BB008091390290913A02A091E9
:100B50003B02B0913C02892B8A2B8B2BA1F00E9487
:100B60006D010091390210913A0220913B023091BF
:100B70003C026C197D098E099F0906171707280783
:100B8000390708F442C08091BC0083FDD8CF85ECC2
:100B90008093BC000E946D016B017C018091370243
:100BA000823009F450C0809135028F3F09F46FC044
:100BB00080913502803209F46CC080913502803317
:100BC00009F469C084E026C08091390290913A020C
:100BD000A0913B02B0913C02892B8A2B8B2B09F40C
:100BE00084CF0E946D018090390290903A02A090CB
:100BF0003B02B0903C026C197D098E099F09861654
:100C00009706A806B90608F070CF809138020E94B6
:100C10003C0585E010923E021092600210923D0267
:100C2000DF91CF911F910F91FF90EF90DF90CF90C8
:100C3000BF90AF909F908F9008959D9191938F5FFB
:100C400069CF85EEA5CF8091390290913A02A091AB
:100C50003B02B0913C02892B8A2B8B2B09F49ECF4F
:100C60000E946D010091390210913A0220913B02DD
:100C700030913C026C197D098E099F0906171707F0
:100C80002807390708F08ACFC0CF81E0C3CF80E0C2
:100C9000C1CF82E0BFCF83E0BDCFE091030280915E
:100CA0000202E81730F4F0E0E65AFE4F808190E04F
:100CB00008958FEF9FEF08959091030280910202B3
:100CC0002FEF3FEF981748F4E92FF0E0E65AFE4F78
:100CD000208130E09F5F90930302C90108958091C5
:100CE000020290910302891B990B0895CF92DF9223
:100CF000EF92FF920F931F93CF93DF937C01CB0171
:100D00008A0120913D02222389F0EB016B01C40E80
:100D1000D51ECC15DD0569F06991D701ED91FC91E7
:100D20000190F081E02DC7010995F3CF642F0E9457
:100D3000F704C801DF91CF911F910F91FF90EF90C1
:100D4000DF90CF900895CF93DF931F92CDB7DEB79A
:100D5000698320913D022223F9F020916002203224
:100D600058F021E030E0FC013383228390E080E002
:100D70000F90DF91CF91089580913E02E82FF0E02F
:100D8000E15CFD4F998190838F5F80933E02809359
:100D9000600281E090E0ECCF61E0CE0101960E941C
:100DA000F704F7CFCF93DF93EA0191E090933D02F0
:100DB00080935F0210923E02109260028EEF92E0EA
:100DC0000E94A30668818EEF92E00E94A30681E054
:100DD0000E945D0591E0811190E0892FDF91CF9114
:100DE000089590E080E008952F923F924F925F9295
:100DF0006F927F928F929F92AF92BF92CF92DF922B
:100E0000EF92FF920F931F93CF93DF93CDB7DEB78F
:100E10002B970FB6F894DEBF0FBECDBFE82ED62EAF
:100E2000F42E3D832C8318010E94C5014B015C0107
:100E30002E2D220F2B830F2DC12C1B8611E04F2D41
:100E400050E05A834983C101B0E0A0E08E839F83C4
:100E5000A887B98710933D02E0925F0210923E028C
:100E6000109260026D2D8EEF92E00E94A30681E049
:100E70000E945D050E946D012B013C0180913702AB
:100E800081116DC00A87013210F090E29A871093A9
:100E9000370210933602AFEFA0933502109234025E
:100EA0008A8581508093330210931202809112023E
:100EB000BB818B2B8093120280911102813009F04B
:100EC00091C0109211020E946D012B013C01809192
:100ED00012028093BB008091390290913A02A09156
:100EE0003B02B0913C02892B8A2B8B2BA1F00E94F4
:100EF0006D012091390230913A0240913B025091AC
:100F00003C026419750986099709261737074807AF
:100F1000590708F445C08091BC0083FDD8CF25EC6B
:100F20002093BC000E946D012B013C01809137028F
:100F3000813009F45BC0809134024A85841718F42B
:100F4000509134025A87A3E1B2E0EAE5F1E080E093
:100F50009A85891751F19D9191938F5FF9CF809177
:100F6000390290913A02A0913B02B0913C02892B48
:100F70008A2B8B2B09F482CF0E946D0120913902BC
:100F800030913A0240913B0250913C02641975093C
:100F900086099709261737074807590708F06ECFC3
:100FA000809138020E943C051A8610920302AA859D
:100FB000A093020280910302BA85B81709F448C0D1
:100FC00021143104A9F58EEF92E00E945C06EC81B9
:100FD000FD812B85E20FF11D27FDFA9580832F5FA0
:100FE0002B87E8CF35EE3093BC009CCF809139023F
:100FF00090913A02A0913B02B0913C02892B8A2B3E
:101000008B2B09F493CF0E946D012091390230910E
:101010003A0240913B0250913C02641975098609DD
:101020009709261737074807590708F07FCFB8CF29
:101030000E94C501681979098A099B092E813F819F
:1010400048855985621773078407950708F4BBCF55
:10105000CF0C0F19CF1408F4FDCE21143104D9F0B0
:101060000E94C501AB01BC01481959096A097B09F5
:10107000C101B0E0A0E0481759076A077B0758F0A4
:101080003B85832F330F990B49815A81841795072C
:1010900014F45FEF5B878B852B960FB6F894DEBF59
:1010A0000FBECDBFDF91CF911F910F91FF90EF90B9
:1010B000DF90CF90BF90AF909F908F907F906F9078
:1010C0005F904F903F902F900895BF92CF92DF9204
:1010D000EF92FF920F931F93CF93DF9300D0CDB782
:1010E000DEB7F82EE62EC42EB22ED02E08EE13E078
:1010F0009E012E5F3F4F41E00E94F406882399F144
:101100008C2D8B19990BAC014F5F5F4F81E090E004
:1011100002C0880F991FBA94E2F70197042E01C00C
:10112000880F0A94EAF70D2D01C0000F4A95EAF7DF
:10113000982F90952A8192238023892B8A838983F3
:10114000AE014F5F5F4F6E2D8F2D0E94D2060F9024
:101150000F90DF91CF911F910F91FF90EF90DF9053
:10116000CF90BF90089580E0F2CFFC010190002065
:10117000E9F73197AF01481B590BBC0181E692E0BA
:101180000C943E038F929F92AF92BF920F931F9346
:10119000CF93DF93CDB7DEB7A1970FB6F894DEBF3C
:1011A0000FBECDBF19A2423008F44AE08E010F5D98
:1011B0001F4F842E912CB12CA12CA50194010E94CB
:1011C000F711E62FB901CA01EA30F4F4E05DD80165
:1011D000EE938D01232B242B252B79F790E080E0D3
:1011E000109719F0CD010E94B508A1960FB6F8949A
:1011F000DEBF0FBECDBFDF91CF911F910F91BF908A
:10120000AF909F908F900895E95CE1CFCF92DF92ED
:10121000EF92FF92CF93DF936C01990FEE08FF08D6
:10122000F7FE19C06DE281E692E00E94DE03EC0158
:1012300066277727CB016C197D098E099F094AE043
:101240000E94C2088C0F9D1FDF91CF91FF90EF90FD
:10125000DF90CF9008954AE0C701B601DF91CF91AA
:10126000FF90EF90DF90CF900C94C2080C94B508DB
:101270004F925F926F927F928F929F92AF92BF92A6
:10128000CF92DF92EF92FF920F931F93CF936B0158
:101290007C01742EAC019B010E94D413882399F029
:1012A00086E491E0CF911F910F91FF90EF90DF9036
:1012B000CF90BF90AF909F908F907F906F905F90F6
:1012C0004F900C94B50846015701E894B7F82FEFFA
:1012D0003FEF4FE75FE7C501B4010E94D4138111CE
:1012E0000DC02FEF3FEF4FE75FE7C501B4010E944C
:1012F0009C1018161CF48AE491E0D4CF2FEF3FEF36
:101300004FE75FE4C701B6010E947D1318161CF475
:101310008EE491E0C7CF2FEF3FEF4FE75FECC701BF
:10132000B6010E949C1087FDF3CF20E030E0A901B8
:10133000C701B6010E949C1010E000E087FF0AC0C0
:101340006DE281E692E00E94DE038C01F7FAF094F0
:10135000F7F8F094C0E060E070E080E09FE37C1676
:1013600041F020E030E040E251E40E94B512CF5F4E
:10137000F6CFA70196010E941A122B013C010E9490
:1013800027134B015C014AE00E94C2087C01E00E79
:10139000F11ECC23C1F1C501B4010E94A1109B0133
:1013A000AC01C301B2010E9419124B015C016EE253
:1013B00081E692E00E94DE03E80EF91EC15018F1AA
:1013C00020E030E040E251E4C501B4010E94021186
:1013D0002B013C010E9427134B01B12CA12C4AE0A8
:1013E000C501B4010E94C208E80EF91EC501B4018E
:1013F0000E94A1109B01AC01C301B2010E9419120D
:101400004B015C01DBCFC701CF911F910F91FF9082
:10141000EF90DF90CF90BF90AF909F908F907F9094
:101420006F905F904F90089585ED8093BC00809100
:10143000390290913A02A0913B02B0913C0207968A
:10144000A11DB11D23E0B695A795979587952A957F
:10145000D1F72091BC0024FD03C0109237020895FB
:101460004091390250913A0260913B0270913C02E6
:10147000452B462B472B69F30097A105B10541F099
:101480002AE22A95F1F700C00197A109B109E1CF3D
:10149000809138020C943C051F920F920FB60F9268
:1014A00011242F933F938F939F93AF93BF9380917A
:1014B000090290910A02A0910B02B0910C023091A6
:1014C000080223E0230F2D3758F50196A11DB11D09
:1014D000209308028093090290930A02A0930B02C2
:1014E000B0930C0280910D0290910E02A0910F0218
:1014F000B09110020196A11DB11D80930D02909331
:101500000E02A0930F02B0931002BF91AF919F9172
:101510008F913F912F910F900FBE0F901F901895B4
:1015200026E8230F0296A11DB11DD2CF1F920F9264
:101530000FB60F9211242F933F934F935F936F93A6
:101540007F938F939F93AF93BF93EF93FF9381E626
:1015500092E00E94BC03FF91EF91BF91AF919F91E8
:101560008F917F916F915F914F913F912F910F904C
:101570000FBE0F901F9018951F920F920FB60F92EB
:1015800011242F938F939F93EF93FF93E091710218
:10159000F09172028081E0917702F091780282FDF1
:1015A0001BC0908180917A028F5F8F7320917B02A4
:1015B000821741F0E0917A02F0E0EF59FD4F958FEC
:1015C00080937A02FF91EF919F918F912F910F90CD
:1015D0000FBE0F901F9018958081F4CF1F920F922D
:1015E0000FB60F9211242F933F934F935F936F93F6
:1015F0007F938F939F93AF93BF93EF93FF93E0916C
:101600000602F0910702309749F0A685B7858585D7
:10161000968D91FF14C09C918923A1F4FF91EF91C5
:10162000BF91AF919F918F917F916F915F914F91FA
:101630003F912F910F900FBE0F901F9018959C9186
:10164000892361F7A389B4899C9185898095892331
:101650008C93868997890197F1F7608D718DA685A6
:10166000B785558538E020E0CB010197F1F7822F4F
:1016700090E095958795282F4C91452309F0206897
:10168000315091F7868D81FD20958091050290E083
:1016900001968F73992730910402381799F0A09121
:1016A0000502B0E0A254BE4F2C9380930502828DB8
:1016B000938D0197F1F7A389B4898C919589892B32
:1016C0008C93ACCF868D8160868FF1CF1F920F9265
:1016D0000FB60F9211242F933F934F935F936F9305
:1016E0007F938F939F93AF93BF93EF93FF938091DB
:1016F000B900887F803609F44AC0F0F5883209F4D1
:10170000A7C018F5803109F49BC0B8F4882309F408
:10171000F9C0883009F494C0FF91EF91BF91AF9167
:101720009F918F917F916F915F914F913F912F91F9
:101730000F900FBE0F901F901895883109F488C044
:10174000803251F78093350214C0803409F49DC073
:1017500040F48033B9F38833F9F68093350285EC91
:10176000B0C0803509F485C0883509F496C0883446
:1017700099F60E94140AD0CF883909F48CC038F544
:10178000883729F050F4883611F0803729F683E045
:10179000809337021092BD0157C0883809F47BC08E
:1017A000803919F0803809F0B7CF8091BD018032BF
:1017B00008F071C0E091BD0181E08E0F8093BD0102
:1017C0008091BB00F0E0E356FE4F80833DC0803B3C
:1017D00039F0E0F4803A09F479C0883A09F09CCFF6
:1017E00084E08093370210929C0110929B01E0915B
:1017F0000002F0910102099580919B0181110FC0B7
:1018000081E080939B0110927B0109C0803C09F428
:10181000A6CF883C09F4A3CF883B09F07DCFE091A7
:101820009C0181E08E0F80939C01F0E0E558FE4F13
:1018300080818093BB0090919C0180919B0129C085
:10184000809112028093BB0085EC8093BC0064CF32
:101850009091340280913302981758F5E091340248
:1018600081E08E0F80933402F0E0ED5EFD4F8081C9
:10187000E9CFE091340281E08E0F809334028091B1
:10188000BB00F0E0ED5EFD4F8083909134028091CB
:1018900033029817C8F285E8D8CFE091340281E08E
:1018A0008E0F809334028091BB00F0E0ED5EFD4F1F
:1018B00080838091360281115CCF81E08093110298
:1018C00084EA8093BC001092370226CF85EC809387
:1018D000BC00109237028091BD01803230F4E0915B
:1018E000BD01F0E0E356FE4F10826091BD0170E053
:1018F000E091FE01F091FF018DE991E009951092D0
:10190000BD010ACF1092350234CF109264021092BA
:10191000630288EE93E0A0E0B0E0809365029093CC
:101920006602A0936702B093680224E131E030932D
:1019300062022093610225EC30E030936E02209326
:101940006D0224EC30E03093700220936F0220ECA3
:1019500030E0309372022093710221EC30E030933A
:1019600074022093730222EC30E0309376022093CD
:10197000750226EC30E030937802209377021092C3
:101980007A0210927B0210927C0210927D021092D9
:101990000103109200038093020390930303A0932A
:1019A0000403B093050326E231E03093FF02209355
:1019B000FE021092420310924103809343039093DE
:1019C0004403A0934503B093460388E391E09093CA
:1019D000400380933F0310925603109255031092D8
:1019E00058031092570310925A0310925903109201
:1019F0005C0310925B0360915D036E7F6D7F60936B
:101A00005D036695617081E068278BE00E94F100BC
:101A100061E08BE00E941F01E7EEF0E0E491E093CB
:101A20004F03E3EDF0E0E491F0E0EE0FFF1FE2542E
:101A3000FF4F85919491909351038093500360E000
:101A40008AE00E941F0180915D0381FD04C061E076
:101A50008AE00E94F1008AE080934B03E6EEF0E01A
:101A6000E491E0934C03E2EDF0E0E491F0E0EE0F5E
:101A7000FF1FEC54FF4F2591349130934E03209378
:101A80004D0344EF51E060E070E040931F0350933A
:101A900020036093210370932203E6E0F1E0ADE2BE
:101AA000B3E001900D928A95E1F71092370382E03E
:101AB0008093380310923D0310923E0388E6809392
:101AC0000A030895CF93DF93CDB7DEB761970FB6C2
:101AD000F894DEBF0FBECDBF789484B5826084BD1C
:101AE00084B5816084BD85B5826085BD85B5816022
:101AF00085BD80916E00816080936E0010928100A0
:101B0000809181008260809381008091810081605A
:101B1000809381008091800081608093800080911B
:101B2000B10084608093B1008091B00081608093A7
:101B3000B00080917A00846080937A0080917A006E
:101B4000826080937A0080917A00816080937A002D
:101B500080917A00806880937A001092C100E091B1
:101B60007102F091720282E08083E0916D02F09147
:101B70006E021082E0916F02F09170028FEC808310
:101B800010927902E0917502F091760286E08083EE
:101B9000E0917302F0917402808180618083E09112
:101BA0007302F0917402808188608083E0917302F7
:101BB000F0917402808180688083E0917302F091DB
:101BC000740280818F7D8083109203021092020242
:101BD00010923E02109260020E941E058CE393E078
:101BE00090930102809300028DE393E09093FF01B4
:101BF0008093FE0162E08CE00E941F0101E023E07F
:101C000042E06BE680910A030E94650800E022E052
:101C100044E06BE180910A030E94650822E044E001
:101C20006CE180910A030E946508F0900A0308EEB7
:101C300013E09E012F5F3F4F41E06BE68F2D0E9426
:101C4000F40689818F7B89838B83AE014D5F5F4F63
:101C50006BE68F2D0E94D20661E082E00E941F0198
:101C600061E083E00E941F0110925A031092590311
:101C70001092580310925703109256031092550376
:101C80008DE991E090935C0380935B0390914B030B
:101C9000963108F047C02DEB30E030935603209387
:101CA00055032BE931E030935803209357032CE27E
:101CB00031E030935A03209359032091680084E067
:101CC000983048F031E09E3008F430E081E001C007
:101CD000880F3A95EAF7822B809368002DE630E072
:101CE000983050F02BE630E09E3030F02CE630E0BB
:101CF000963110F030E020E03093530320935203EC
:101D0000292F30E0983008F063C081E001C0880FCF
:101D10009A95EAF78093540380915B0390915C035A
:101D20000197F1F78091590390915A03892B49F15A
:101D3000E0910602F091070223E0EF33F20709F188
:101D4000309739F0A389B4899C918589809589233E
:101D50008C9380915D038E7F80935D0310920502CA
:101D6000109204028FE393E090930702809306029F
:101D7000E0915203F0915303808190915403892B99
:101D800080838FE393E090931A038093190381E09B
:101D90008093310370E060E08CE00E94E2020E94D8
:101DA000C5016B017C010E94D10181111EC00E94FE
:101DB000C5016C197D098E099F09613D7740810538
:101DC000910598F460E070E0CB010E949201EBCFA6
:101DD0009E3040F42850310981E001C0880F2A95D7
:101DE000EAF798CF2E503109F7CF68EC70E080E029
:101DF00090E00E94920110923D036EE170E086E057
:101E00000E94E202CE0101961C0184E10E945B0166
:101E10009D838C8381E10E945B019F838E8380E19F
:101E20000E945B01998788878FE00E945B019B87F6
:101E30008A878EE00E945B019D878C870E94CD007F
:101E400008EE13E02BE033E046E06BE380910A03F9
:101E50000E94F40660910B0370910C0376276727AC
:101E60007627072E000C880B990B0E94A3104B01BC
:101E70005C0160910D0370910E037627672776272A
:101E8000072E000C880B990B0E94A3106B017C019C
:101E900060910F0370911003762767277627072E2E
:101EA000000C880B990B0E94A3109B01AC010E94AF
:101EB00002112B013C01A7019601C701B6010E9446
:101EC0000211A30192010E941A120E9490139B0119
:101ED000AC01C501B4010E94B5120E9486126E8742
:101EE0007F87888B998BA5019401C501B4010E945D
:101EF0000211A30192010E941A120E9490139B01E9
:101F0000AC01C701B6010E94B5120E9486126B0196
:101F10007C018C819D810E94060982E591E00E94EE
:101F200036098E819F810E94060982E591E00E9418
:101F30003609888599850E94060982E591E00E940C
:101F400036098A859B850E94060982E591E00E94F8
:101F500036098C859D850E94060982E591E00E94E4
:101F6000360923EA3CE445E652E46E857F8588899C
:101F700099890E94021142E00E94380982E591E0AD
:101F80000E94360923EA3CE445E652E4C701B60163
:101F90000E94021142E00E94380982E591E00E940D
:101FA00036090E94CD00019709F05DC084E591E0FB
:101FB0000E94360988E591E00E94360962E370E0EC
:101FC00080E090E00E94920181E692E00E949C03F2
:101FD00018161906DCF581E692E00E947A03182FA4
:101FE0008FEC810F61E0853008F040C082E00E94F4
:101FF000F10064E670E080E090E00E94920160E011
:1020000082E00E94F10019831A82F1010190002000
:10201000E9F7BF016219730990E080E00E94191589
:102020007C01812C912C5401009761F0FC011082FD
:10203000B1010E94DF15C7010E9460104B01C7016A
:102040000E949014B40183E00E94E20280E090E0DC
:10205000892B09F4DACE0E94A803882309F4D5CE8F
:102060000E940000D2CE86E591E0A2CF83E00E94DC
:10207000F10064E670E080E090E00E94920160E090
:1020800083E00E94F100E2CF88E391E09093400367
:1020900080933F0380910602909107028F539340F3
:1020A00071F4E0915203F0915303908180915403B5
:1020B000809589238083109207021092060208956A
:1020C0001F93FC0199278827BC01E89411911032D5
:1020D000E9F3193010F01E30C8F31B3251F01D32F5
:1020E00049F4689406C00E948710610F711D811D1C
:1020F000911D119110531A30B0F33EF490958095D4
:10210000709561957F4F8F4F9F4F1F910895592F65
:10211000482F372F262F660F771F881F991F660FAE
:10212000771F881F991F620F731F841F951F660FEB
:10213000771F881F991F08950E94DE1008F481E020
:102140000895E89409C097FB3EF4909580957095AA
:1021500061957F4F8F4F9F4F9923A9F0F92F96E9F3
:10216000BB279395F695879577956795B795F11168
:10217000F8CFFAF4BB0F11F460FF1BC06F5F7F4F05
:102180008F4F9F4F16C0882311F096E911C0772317
:1021900021F09EE8872F762F05C0662371F096E820
:1021A000862F70E060E02AF09A95660F771F881FEF
:1021B000DAF7880F9695879597F90895990F000893
:1021C000550FAA0BE0E8FEEF16161706E807F90709
:1021D000C0F012161306E407F50798F0621B730BA4
:1021E000840B950B39F40A2661F0232B242B252B25
:1021F00021F408950A2609F4A140A6958FEF811DC8
:10220000811D08950E9415110C9486110E94781169
:1022100038F00E947F1120F0952311F00C946F117B
:102220000C94751111240C94BA110E94971170F33B
:10223000959FC1F3950F50E0551F629FF001729F6B
:10224000BB27F00DB11D639FAA27F00DB11DAA1F7A
:10225000649F6627B00DA11D661F829F2227B00DC7
:10226000A11D621F739FB00DA11D621F839FA00D52
:10227000611D221F749F3327A00D611D231F849FA2
:10228000600D211D822F762F6A2F11249F575040F9
:102290009AF0F1F088234AF0EE0FFF1FBB1F661F74
:1022A000771F881F91505040A9F79E3F510580F03D
:1022B0000C946F110C94BA115F3FE4F3983ED4F381
:1022C000869577956795B795F795E7959F5FC1F7E1
:1022D000FE2B880F911D9695879597F9089597F98C
:1022E0009F6780E870E060E008959FEF80EC0895BC
:1022F00000240A94161617061806090608950024E5
:102300000A9412161306140605060895092E03945E
:10231000000C11F4882352F0BB0F40F4BF2B11F4D2
:1023200060FF04C06F5F7F4F8F4F9F4F089557FD31
:102330009058440F551F59F05F3F71F04795880F33
:1023400097FB991F61F09F3F79F0879508951216CA
:1023500013061406551FF2CF4695F1DF08C0161676
:1023600017061806991FF1CF869571056105089427
:102370000895E894BB2766277727CB0197F908953E
:102380002F923F924F925F926F927F928F929F9285
:10239000AF92BF92CF92DF92EF92FF920F931F9373
:1023A000CF93DF93CDB7DEB7CA1BDB0B0FB6F89424
:1023B000DEBF0FBECDBF09942A88398848885F8464
:1023C0006E847D848C849B84AA84B984C884DF80D5
:1023D000EE80FD800C811B81AA81B981CE0FD11DB9
:1023E0000FB6F894DEBF0FBECDBFED010895A1E298
:1023F0001A2EAA1BBB1BFD010DC0AA1FBB1FEE1F7F
:10240000FF1FA217B307E407F50720F0A21BB30BC9
:10241000E40BF50B661F771F881F991F1A9469F745
:1024200060957095809590959B01AC01BD01CF01A1
:1024300008955058BB27AA270E9431120C94861188
:102440000E94781138F00E947F1120F039F49F3FEC
:1024500019F426F40C9475110EF4E095E7FB0C9436
:102460006F11E92F0E94971158F3BA17620773078B
:102470008407950720F079F4A6F50C94B9110EF4B1
:10248000E0950B2EBA2FA02D0B01B90190010C0184
:10249000CA01A0011124FF27591B99F0593F50F49C
:1024A000503E68F11A16F040A22F232F342F4427F4
:1024B000585FF3CF469537952795A795F0405395EC
:1024C000C9F77EF41F16BA0B620B730B840BBAF0BC
:1024D0009150A1F0FF0FBB1F661F771F881FC2F727
:1024E0000EC0BA0F621F731F841F48F4879577953B
:1024F0006795B795F7959E3F08F0B0CF9395880FF5
:1025000008F09927EE0F979587950895DF93DD27BB
:10251000B92FBF7740E85FE31616170648075B0739
:1025200018F4D92F0E9482139F938F937F936F93F8
:102530000E94D013E8E6F0E00E9456130E94861134
:102540002F913F914F915F910E941511DD2351F022
:102550009058A2EA2AED3FE049EC5FE3D0785D278E
:102560000E943112DF910C9486110E94C9120C94C2
:1025700086110E947F1158F00E94781140F029F4D2
:102580005F3F29F00C946F1151110C94BA110C9407
:1025900075110E94971168F39923B1F3552391F3B4
:1025A000951B550BBB27AA2762177307840738F0C2
:1025B0009F5F5F4F220F331F441FAA1FA9F335D01F
:1025C0000E2E3AF0E0E832D091505040E695001CD3
:1025D000CAF72BD0FE2F29D0660F771F881FBB1F8D
:1025E000261737074807AB07B0E809F0BB0B802D6B
:1025F000BF01FF2793585F4F3AF09E3F510578F097
:102600000C946F110C94BA115F3FE4F3983ED4F32D
:10261000869577956795B795F7959F5FC9F7880F6A
:10262000911D9695879597F90895E1E0660F771FBC
:10263000881FBB1F621773078407BA0720F0621B4D
:10264000730B840BBA0BEE1F88F7E09508950E9478
:102650009F1188F09F5798F0B92F9927B751B0F084
:10266000E1F0660F771F881F991F1AF0BA95C9F716
:1026700014C0B13091F00E94B911B1E008950C94EA
:10268000B911672F782F8827B85F39F0B93FCCF39D
:10269000869577956795B395D9F73EF49095809593
:1026A000709561957F4F8F4F9F4F0895DF93CF9324
:1026B0001F930F93FF92EF92DF927B018C0168943E
:1026C00006C0DA2EEF010E941511FE01E894A591D3
:1026D0002591359145915591A6F3EF010E94311254
:1026E000FE019701A801DA9469F7DF90EF90FF905F
:1026F0000F911F91CF91DF9108950E94DE1008F491
:102700008FEF08959B01AC0160E070E080E89FE3EB
:102710000C94B51219F416F40C9475110C94D91389
:102720000E949F11B8F39923C9F3B6F39F57550B35
:1027300087FF0E94E7130024A0E640EA900180583A
:102740005695979528F4805C660F771F881F20F0B8
:1027500026173707480730F4621B730B840B2029B8
:1027600031294A2BA69517940794202531254A270D
:1027700058F7660F771F881F20F02617370748077E
:1027800030F4620B730B840B200D311D411DA0959D
:1027900081F7B901842F9158880F969587950895F0
:1027A0009B01AC010C9402110E94DE10880B990B66
:1027B00008959F3F31F0915020F487957795679564
:1027C000B795880F911D9695879597F90895915023
:1027D0005040660F771F881FD2F70895EE0FFF1F36
:1027E0000590F491E02D09940F931F93CF93DF93FD
:1027F0008230910510F482E090E0E0916003F09166
:10280000610330E020E0B0E0A0E0309799F42115BA
:10281000310509F44AC0281B390B24303105D8F59D
:102820008A819B816115710589F1FB019383828304
:10283000FE0111C04081518102811381481759075F
:10284000E0F04817590799F4109761F012960C932D
:10285000129713961C933296CF01DF91CF911F915F
:102860000F9108950093600310936103F4CF211535
:10287000310551F04217530738F0A901DB019A01E5
:10288000BD01DF01F801C1CFEF01F9CF90936103E2
:1028900080936003CDCFFE01E20FF31F81939193EC
:1028A0002250310939832883D7CF20915E0330919C
:1028B0005F03232B41F420910201309103013093F7
:1028C0005F0320935E0320910001309101012115E7
:1028D000310541F42DB73EB74091040150910501F7
:1028E000241B350BE0915E03F0915F03E217F307C1
:1028F000A0F42E1B3F0B2817390778F0AC014E5F70
:102900005F4F2417350748F04E0F5F1F50935F034A
:1029100040935E03819391939FCFF0E0E0E09CCFE2
:10292000CF93DF930097E9F0FC0132971382128274
:10293000A0916003B0916103ED0130E020E01097B9
:10294000A1F420813181820F931F20915E03309189
:102950005F032817390709F061C0F0935F03E09324
:102960005E03DF91CF910895EA01CE17DF07E8F506
:102970004A815B819E0141155105B1F7E901FB8355
:10298000EA8349915991C40FD51FEC17FD0761F4F3
:10299000808191810296840F951FE9019983888334
:1029A000828193819B838A83F0E0E0E012968D918F
:1029B0009C9113970097B9F52D913C911197CD01FA
:1029C0000296820F931F20915E0330915F032817B8
:1029D000390739F6309751F5109261031092600370
:1029E000B0935F03A0935E03BCCFD383C2834081C7
:1029F0005181840F951FC817D90761F44E5F5F4F4F
:102A000088819981480F591F518340838A819B8116
:102A1000938382832115310509F0B0CFF0936103D0
:102A2000E09360039ECFFD01DC01C0CF13821282D0
:102A3000D7CFB0E0A0E0EFE1F5E10C94C2118C013A
:102A4000009751F4CB010E94F4138C01C801CDB75B
:102A5000DEB7E0E10C94DE11FC01E60FF71F9C01EC
:102A600022503109E217F30708F49DC0D901CD9136
:102A7000DC911197C617D70798F0C530D10530F310
:102A8000CE0104978617970708F3C61BD70B22972A
:102A9000C193D1936D937C93CF010E949014D6CFB4
:102AA0005B01AC1ABD0A4C018C0E9D1EA091600307
:102AB000B0916103512C412CF12CE12C109731F590
:102AC00080915E0390915F038815990509F05CC0C1
:102AD0004616570608F058C08091000190910101F8
:102AE000009741F48DB79EB74091040150910501C4
:102AF000841B950BE817F90708F055C0F0935F03A6
:102B0000E0935E03F90171836083A0CF8D919C9166
:102B1000119712966C90129713967C901397A815A4
:102B2000B90559F56C0142E0C40ED11CCA14DB048E
:102B300020F1AC014A195B09DA011296159780F071
:102B40006282738251834083D9016D937C93E11437
:102B5000F10471F0D7011396FC93EE93129776CFA0
:102B600022968C0F9D1FF90191838083F301EFCF93
:102B7000F0936103E093600369CF4816590608F4A7
:102B80002C017D01D3019ACFCB010E94F4137C016B
:102B9000009749F0AE01B8010E94D615C8010E9405
:102BA0009014870153CF10E000E050CFFB01DC010F
:102BB00002C001900D9241505040D8F70895FB019A
:102BC000DC0101900D920020E1F7089510E0C9E7C3
:102BD000D0E004C0FE010E94EE132196CA37D1074F
:102BE000C9F7F894FFCF0000620380007EFF060063
:102BF0000100000000EF00000000DE033E036B0355
:102C00002B049C037A038E0300000000A3067606C3
:102C1000F10663046F065C064D06000000006404C4
:102C20003E03F1066304C004D6044B046E616E00DB
:102C3000696E66006F7666000900300031000A0098
:107800000C94343C0C94513C0C94513C0C94513CE1
:107810000C94513C0C94513C0C94513C0C94513CB4
:107820000C94513C0C94513C0C94513C0C94513CA4
:107830000C94513C0C94513C0C94513C0C94513C94
:107840000C94513C0C94513C0C94513C0C94513C84
:107850000C94513C0C94513C0C94513C0C94513C74
:107860000C94513C0C94513C11241FBECFEFD8E036
:10787000DEBFCDBF11E0A0E0B1E0ECE9FFE702C060
:1078800005900D92A230B107D9F712E0A2E0B1E065
:1078900001C01D92AD30B107E1F70E942D3D0C945F
:1078A000CC3F0C94003C982F959595959595959582
:1078B000905D8F708A307CF0282F295A8091C0000B
:1078C00085FFFCCF9093C6008091C00085FFFCCF60
:1078D0002093C6000895282F205DF0CF982F809127
:1078E000C00085FFFCCF9093C6000895EF92FF92F1
:1078F0000F931F93EE24FF2487018091C00087FD22
:1079000017C00894E11CF11C011D111D81E4E8164B
:1079100082E4F8068FE0080780E0180770F3E09132
:107920000401F091050109958091C00087FFE9CF1E
:107930008091C6001F910F91FF90EF9008950E94D3
:10794000763C982F8091C00085FFFCCF9093C600B5
:1079500091362CF490330CF09053892F089597555D
:10796000892F08951F930E949F3C182F0E949F3CCF
:107970001295107F810F1F9108951F93182F882350
:1079800021F00E94763C1150E1F71F9108951F935A
:10799000182F0E94763C803249F0809103018F5F5E
:1079A000809303018530C1F01F9108958091C0003C
:1079B00085FFFCCF84E18093C6008091C00085FFE5
:1079C000FCCF1093C6008091C00085FFFCCF80E102
:1079D0008093C6001F910895E0910401F091050184
:1079E00009951F9108950E94763C803241F0809164
:1079F00003018F5F80930301853081F008958091AA
:107A0000C00085FFFCCF84E18093C6008091C00058
:107A100085FFFCCF80E18093C6000895E0910401CA
:107A2000F09105010995089540E951E08823A1F0FE
:107A30002D9A28EE33E0FA013197F1F721503040CA
:107A4000D1F72D9828EE33E0FA013197F1F7215064
:107A50003040D1F7815061F708953F924F925F9285
:107A60006F927F928F929F92AF92BF92CF92DF924E
:107A7000EF92FF920F931F93CF93DF93000080E16B
:107A80008093C4001092C50088E18093C10086E015
:107A90008093C2005098589A259A81E00E94143D24
:107AA00024E1F22E9EE1E92E85E9D82E0FE0C02ECA
:107AB00010E1B12EAA24A394B1E49B2EA6E58A2E50
:107AC000F2E57F2EE0E26E2E79E4572E63E5462E36
:107AD00050E5352E0E94763C8033B1F18133B9F107
:107AE000803409F46FC0813409F476C0823409F41B
:107AF00085C0853409F488C0803531F1823521F1A3
:107B0000813511F1853509F485C0863509F48DC0BC
:107B1000843609F496C0843709F403C1853709F423
:107B200072C1863709F466C0809103018F5F80932C
:107B30000301853079F6E0910401F0910501099582
:107B40000E94763C803351F60E94F33CC3CF0E94E2
:107B5000763C803249F78091C00085FFFCCFF092DF
:107B6000C6008091C00085FFFCCF9092C600809136
:107B7000C00085FFFCCF8092C6008091C00085FFC9
:107B8000FCCF7092C6008091C00085FFFCCF609250
:107B9000C6008091C00085FFFCCF5092C600809146
:107BA000C00085FFFCCF4092C6008091C00085FFD9
:107BB000FCCF3092C6008091C00085FFFCCFB09210
:107BC000C60088CF0E94763C863808F4BDCF0E945C
:107BD000763C0E94F33C7ECF0E94763C803809F4CC
:107BE0009CC0813809F40BC1823809F43CC1883942
:107BF00009F48FC080E00E94C73C6CCF84E10E94F2
:107C0000BD3C0E94F33C66CF85E00E94BD3C0E94D3
:107C1000F33C60CF0E94763C809306010E94763C44
:107C2000809307010E94F33C55CF0E94763C80333D
:107C300009F41DC183E00E94BD3C80E00E94C73C66
:107C400049CF0E94763C809309020E94763C809343
:107C5000080280910C028E7F80930C020E94763C79
:107C6000853409F415C18091080290910902892B8D
:107C700089F000E010E00E94763CF801E85FFE4FDA
:107C800080830F5F1F4F80910802909109020817AF
:107C9000190788F30E94763C803209F045CF809125
:107CA0000C0280FF01C16091060170910701660F0F
:107CB000771F7093070160930601A0910802B091AD
:107CC00009021097C9F0E8E0F1E09B01AD014E0F09
:107CD0005F1FF999FECF32BD21BD819180BDFA9A17
:107CE000F99A2F5F3F4FE417F50799F76A0F7B1F4B
:107CF00070930701609306018091C00085FFFCCF5F
:107D0000F092C6008091C00085FFFCCFB092C60003
:107D1000E1CE83E00E94C73CDDCE82E00E94C73CFA
:107D2000D9CE0E94763C809309020E94763C8093D3
:107D300008028091060190910701880F991F909386
:107D40000701809306010E94763C853409F4A6C0A1
:107D500080910C028E7F80930C020E94763C8032D0
:107D600009F0B8CE8091C00085FFFCCFF092C6002C
:107D7000609108027091090261157105B9F140E046
:107D800050E080910C02A82FA170B82FB27011C0E2
:107D9000BB2309F45CC0E0910601F0910701319624
:107DA000F0930701E09306014F5F5F4F46175707B7
:107DB000E8F4AA2369F3F999FECF209106013091E6
:107DC000070132BD21BDF89A90B58091C00085FFB2
:107DD000FCCF9093C6002F5F3F4F30930701209355
:107DE00006014F5F5F4F4617570718F38091C00099
:107DF00085FDE5CE8091C00085FFF8CFE0CE81E023
:107E00000E94C73C67CE0E94763C803209F08CCE3F
:107E10008091C00085FFFCCFF092C6008091C00029
:107E200085FFFCCFE092C6008091C00085FFFCCFAB
:107E3000D092C6008091C00085FFFCCFC092C600E2
:107E40008091C00085FFFCCFB092C60043CEE09188
:107E50000601F091070194918091C00085FFFCCF4D
:107E60009093C6009CCF80E10E94C73C33CE0E9415
:107E7000763C0E94763C182F0E94763C112309F430
:107E800083C0113009F484C08FE00E94C73C22CE29
:107E900080910C02816080930C02E5CE80910C02EF
:107EA000816080930C0259CF809107018823880F4D
:107EB000880B8A2180930B02809106019091070123
:107EC000880F991F90930701809306018091080203
:107ED00080FF09C080910802909109020196909359
:107EE000090280930802F894F999FECF1127E091D6
:107EF0000601F0910701C8E0D1E08091080290915D
:107F00000902103091F40091570001700130D9F34B
:107F100003E000935700E89500915700017001308D
:107F2000D9F301E100935700E89509901990009169
:107F3000570001700130D9F301E000935700E89534
:107F40001395103498F011270091570001700130FB
:107F5000D9F305E000935700E895009157000170B0
:107F60000130D9F301E100935700E895329602976A
:107F700009F0C7CF103011F00296E5CF112480919F
:107F8000C00085FFB9CEBCCE8EE10E94C73CA2CD19
:0E7F900085E90E94C73C9ECDF894FFCF80008B
:00000001FF
